:100000000C9401010C942B010C942B010C942B01EA
:100010000C942B010C942B010C942B010C942B01B0
:100020000C942B010C942B010C942B010C942B01A0
:100030000C942B010C942B010C942B010C942B0190
:100040000C942B010C942B010C942B010C942B0180
:100050000C942B010C942B010C942B010C949F04F9
:100060000C942B010C94F6070C942C080C942B0187
:100070000C942B010C942B010C942B010C942B0150
:100080000C942B010C942B010C942B010C942B0140
:100090000C948D080C94C3080C942B010C942B0128
:1000A0000C942B010C942B010C942B010C942B0120
:1000B0000C942B010C942B010C942B010C942B0110
:1000C0000C942B010C942B010C942B010C942B0100
:1000D0000C942B010C942B010C942B010C942B01F0
:1000E0000C942B010C942B010C942B010C94720298
:1000F0000C94A0020C942B010C942B010C9448023C
:100100000C942B010C942B010C942B010C942B01BF
:100110000C942B010C942B010C942B010C942B01AF
:10012000EA05ED05DC05E005E6052406F105F50523
:10013000FB05FF05030609060D0611062406170632
:100140001B061F06000000090A0B00000307000041
:10015000000000000000000200000000000000009D
:100160000000000000000405010204081020408087
:1001700020100104080202010102042004081020DA
:1001800040800102040810204080408005050505DC
:10019000050505050202020202020404070707071B
:1001A0000404040404040606060606060606020203
:1001B000000000000000260029002C002F00320063
:1001C000000000000000000000000000000025000A
:1001D00000002B002E003100340000000000000061
:1001E0000000000000000000240000002A002D0094
:1001F0003000330000000000000000000000600834
:10020000F70811241FBECFEFD1E4DEBFCDBF12E04F
:10021000A0E0B2E0E8E1FBE100E00BBF02C0079024
:100220000D92A63DB107D9F724E0A6EDB2E001C0DA
:100230001D92A13BB207E1F710E0C1E0D1E004C09C
:100240002197FE010E941B0BCF3FD107C9F70E94E7
:10025000D50A0C948A0D0C940000E6EEF2E011929F
:1002600083E0E636F807D9F7109268031092670327
:10027000109266031092650361E082E20E942506F7
:1002800060E082E20E94610661E083E20E9425064E
:1002900060E083E20E946106809139018160809371
:1002A000390110924E0180914201807E88608093D6
:1002B000420161E070E080E090E00E940E058091D4
:1002C00041018F718830B1F4809144018062809344
:1002D00044018CE480934E0180914801807E8B60C4
:1002E0008093480180914201807E86608093420124
:1002F00081E0089580E008956F927F928F929F929F
:10030000AF92BF92CF92DF92EF92FF920F931F9323
:10031000CF93DF93CDB7DEB7CF57D1090FB6F8949F
:10032000DEBF0FBECDBF4C01FC01D4806580AD2C7B
:10033000B62CCE0101967C0100E010E0782ECF2C87
:100340000A151B0554F4B801C4010E94D20AF70132
:1003500081937F010F5F1F4FF3CF80914201807E19
:10036000896080934201809141018970E1F361E0ED
:1003700083E20E94610682E08D0D809380014D2D05
:10038000562D672D7C2D81E891E00E943A0D8091D9
:100390003901826080933901809139018D7F80938A
:1003A000390180914201807E866080934201C1586C
:1003B000DF4F0FB6F894DEBF0FBECDBFDF91CF91F8
:1003C0001F910F91FF90EF90DF90CF90BF90AF9073
:1003D0009F908F907F906F900895CF93C82F9091AA
:1003E0004201907E996090934201909141019970F1
:1003F000E1F361E083E20E94610683E08093800183
:10040000C09381018091390182608093390180918C
:1004100039018D7F8093390180914201807E866011
:1004200080934201CF910895809165039091660376
:10043000209167033091680381589F4F821B930B73
:100440006FE770E00E94E50A0895209165033091FE
:100450006603809167039091680328173907B1F00C
:10046000E0916703F0916803EA51FD4F208180918C
:1004700067039091680301966FE770E00E94E50AB8
:100480009093680380936703822F08958FEF0895F8
:100490001F920F920FB60F9211240BB60F922F934B
:1004A0003F934F935F936F937F938F939F93AF93FC
:1004B000BF93EF93FF9360E083E20E946106FF9198
:1004C000EF91BF91AF919F918F917F916F915F91CC
:1004D0004F913F912F910F900BBE0F900FBE0F9039
:1004E0001F9018951F920F920FB60F9211240BB602
:1004F0000F922F933F934F935F936F937F938F93BD
:100500009F93AF93BF93EF93FF9361E082E20E94CA
:1005100061068091460180936903FF91EF91BF913D
:10052000AF919F918F917F916F915F914F913F918B
:100530002F910F900BBE0F900FBE0F901F9018952C
:100540001F920F920FB60F9211240BB60F92EF92DB
:10055000FF920F931F932F933F934F935F936F934C
:100560007F938F939F93AF93BF93EF93FF93CF931B
:10057000DF93CDB7DEB7CF57D109DEBFCDBF8091B6
:100580006903877021F560E082E20E946106C1582C
:10059000DF4F0FB6F894DEBF0FBECDBFDF91CF9116
:1005A000FF91EF91BF91AF919F918F917F916F914B
:1005B0005F914F913F912F911F910F91FF90EF907D
:1005C0000F900BBE0F900FBE0F901F9018950091CB
:1005D0007B0110E0CE0101967C01A80160E871E08A
:1005E0000E943A0D809165039091660301966FE732
:1005F00070E00E94E50AF701025011092FE730E090
:1006000040916703509168038417950709F4BBCFA5
:10061000AF014E195F094017510708F0B4CFA09100
:100620006503B09166034191AA51BD4F4C939093DD
:100630006603809365030196B9010E94E50AE0CF45
:10064000CF93DF9300D000D000D0CDB7DEB726E047
:1006500040E855E260E070E083E793E00E94910794
:1006600026E040E052EC6FEF7FEF80E194E00E94E3
:1006700091078BE00E942D0167E072E0CE010196A8
:100680000E940F0ACE0101960E947C01CE010196C4
:100690000E94A10960E08AE10E94250660E08BE1EA
:1006A0000E94250660E08CE10E94250660E08DE155
:1006B0000E94250660E080E20E94250660E081E25B
:1006C0000E94250660E08EE00E94250660E08FE033
:1006D0000E94250661E08FE10E94250661E08EE11F
:1006E0000E94250661E08DE10E94250626960FB640
:1006F000F894DEBF0FBECDBFDF91CF910895CF93A9
:10070000DF93CDB7DEB76E970FB6F894DEBF0FBE9E
:10071000CDBF8AE10E94AC059093E5028093E4028C
:100720008BE10E94AC059093E3028093E2028CE19E
:100730000E94AC059093E1028093E0028DE10E945B
:10074000AC059093DF028093DE0280E20E94AC054C
:100750009093DD028093DC0281E20E94AC059093CD
:10076000DB028093DA028EE00E9491069093D90218
:100770008093D8028FE00E9491069093D7028093D5
:10078000D6026091E2027091E3024AE0CE01019646
:100790000E943B0A6091E4027091E5024AE0CE01BA
:1007A00007960E943B0A6091DE027091DF024AE0E8
:1007B000CE010D960E943B0A6091E0027091E10229
:1007C0004AE0CE0149960E943B0A69E272E0CE01FE
:1007D00043960E940F0ABE01675E7F4FCE0143968B
:1007E0000E94950A6FE372E00E94A80ABE01635F4F
:1007F0007F4F0E94950A69E472E00E94A80ABE0138
:10080000695F7F4F0E94950A61E572E00E94A80A25
:10081000BE016F5F7F4F0E94950ABC0183E793E0A2
:100820000E947D09CE0143960E94A109CE014996FE
:100830000E94A109CE010D960E94A109CE01079642
:100840000E94A109CE0101960E94A1096091DA02DD
:100850007091DB024AE0CE0101960E943B0A609152
:10086000DC027091DD024AE0CE010D960E943B0A47
:100870006EE572E0CE0107960E940F0ABE01635F2B
:100880007F4FCE0107960E94950A60E772E00E94B2
:10089000A80ABE016F5F7F4F0E94950ABC0183E7E3
:1008A00093E00E947D09CE0107960E94A109CE0126
:1008B0000D960E94A109CE0101960E94A109809186
:1008C000D8029091D902019751F464E872E083E76D
:1008D00093E00E948F091092D9021092D802809161
:1008E000D6029091D702019751F46FE972E083E745
:1008F00093E00E948F091092D7021092D60283E7EC
:1009000093E00E94BA06892B31F083E793E00E94BE
:10091000D4060E94ED010E941402892B39F00E9436
:100920002502682F83E793E00E9472096E960FB646
:10093000F894DEBF0FBECDBFDF91CF9108951F9217
:100940000F920FB60F9211242F933F938F939F9383
:10095000AF93BF9380916B0390916C03A0916D0353
:10096000B0916E0330916A0323E0230F2D3720F4FA
:100970000196A11DB11D05C026E8230F0296A11DF9
:10098000B11D20936A0380936B0390936C03A09333
:100990006D03B0936E0380916F0390917003A091EB
:1009A0007103B09172030196A11DB11D80936F0375
:1009B00090937003A0937103B0937203BF91AF91B2
:1009C0009F918F913F912F910F900FBE0F901F908D
:1009D00018953FB7F89480916F0390917003A091A0
:1009E0007103B091720326B5A89B05C02F3F19F083
:1009F0000196A11DB11D3FBFBA2FA92F982F88279F
:100A0000820F911DA11DB11DBC01CD0142E0660FF9
:100A1000771F881F991F4A95D1F708958F929F924B
:100A2000AF92BF92CF92DF92EF92FF926B017C0167
:100A30000E94E9044B015C01C114D104E104F104FA
:100A400001F10E94E40A0E94E904DC01CB0188194B
:100A50009909AA09BB09883E9340A105B10560F335
:100A600021E0C21AD108E108F10888EE880E83E07F
:100A7000981EA11CB11CC114D104E104F10419F7A2
:100A8000DBCFFF90EF90DF90CF90BF90AF909F9023
:100A90008F900895789484B5826084BD84B5816018
:100AA00084BD85B5826085BD85B5816085BDEEE676
:100AB000F0E0808181608083E1E8F0E01082808155
:100AC00082608083808181608083E0E8F0E08081C3
:100AD00081608083E1EBF0E0808184608083E0EBE3
:100AE000F0E0808181608083E1E9F0E080818260D4
:100AF0008083808181608083E0E9F0E08081816093
:100B00008083E1EAF0E0808182608083808181607F
:100B10008083E0EAF0E0808181608083E1E2F1E0BF
:100B2000808182608083808181608083E0E2F1E067
:100B3000808181608083EAE7F0E080818460808347
:100B400080818260808380818160808380818068F1
:100B500080831092C10008958E3008F08E509091DD
:100B60007B00282F2870977F922B90937B008770B3
:100B70002091060290E4299F90011124822B8093FA
:100B80007C0080917A00806480937A0080917A0062
:100B900086FDFCCF809178002091790090E0922B27
:100BA000089590E0FC013197E231F10508F04CC066
:100BB000E057FF4F0C941B0B809180008F7703C090
:100BC000809180008F7D80938000089580918000C7
:100BD000877FF9CF84B58F7702C084B58F7D84BDC0
:100BE00008958091B0008F7703C08091B0008F7D11
:100BF0008093B0000895809190008F7707C0809116
:100C000090008F7D03C080919000877F809390003B
:100C100008958091A0008F7707C08091A0008F7DFC
:100C200003C08091A000877F8093A00008958091E9
:100C300020018F7707C0809120018F7D03C08091B4
:100C40002001877F809320010895CF93DF9390E068
:100C5000FC01E859FE4F2491FC01E457FE4F8491BA
:100C6000882361F190E0880F991FFC01EC51FE4F41
:100C7000C591D491FC01E653FE4FA591B491611149
:100C800009C09FB7F8948881209582238883EC91CE
:100C90002E230BC0623061F49FB7F8943881822F05
:100CA000809583238883EC912E2B2C939FBF06C0C5
:100CB0008FB7F894E8812E2B28838FBFDF91CF91D7
:100CC00008951F93CF93DF93282F30E0F901EC5B59
:100CD000FE4F8491F901E859FE4FD491F901E45790
:100CE000FE4FC491CC23C9F0162F81110E94D1056B
:100CF000EC2FF0E0EE0FFF1FE653FE4FA591B491ED
:100D00008FB7F894111105C09C91ED2FE095E92360
:100D100002C0EC91ED2BEC938FBFDF91CF911F912F
:100D20000895CF93DF93282F30E0F901EC5BFE4F5D
:100D30008491F901E859FE4FD491F901E457FE4F2F
:100D4000C491CC2391F081110E94D105EC2FF0E0E9
:100D5000EE0FFF1FE055FE4FA591B491EC91ED23EE
:100D600081E090E021F480E002C080E090E0DF913B
:100D7000CF910895FC01918D228D892F90E0805CA8
:100D80009F4F821B91098F7399270895FC01918DC4
:100D9000828D981731F0828DE80FF11D858D90E0DE
:100DA00008958FEF9FEF0895FC01918D828D981724
:100DB00061F0828DDF01A80FB11D5D968C91928D3F
:100DC0009F5F9F73928F90E008958FEF9FEF08953C
:100DD00086E598E0892B41F080E090E0892B21F0B6
:100DE0000E94560881110DC08DEE98E0892B71F09C
:100DF00080E090E0892B51F00E94ED08811104C041
:100E000008950E940000F0CF0C9400000895FC01AA
:100E1000848DDF01A80FB11DA35ABF4F2C91848D83
:100E200090E001968F739927848FA689B7892C93B8
:100E3000A089B1898C9180648C93938D848D981353
:100E400006C00288F389E02D80818F7D808308951C
:100E5000CF93DF93EC01888D8823C9F0EA89FB8961
:100E6000808185FD05C0A889B9898C9186FD0FC058
:100E70000FB607FCF5CF808185FFF2CFA889B9892D
:100E80008C9185FFEDCFCE010E940707E7CFDF9160
:100E9000CF910895EF92FF920F931F93CF93DF931B
:100EA000EC0181E0888F9B8D8C8D981305C0E889BB
:100EB000F989808185FD24C0F62E0B8D10E00F5F2F
:100EC0001F4F0F731127E02E8C8DE8120CC00FB648
:100ED00007FCFACFE889F989808185FFF5CFCE013B
:100EE0000E940707F1CF8B8DFE01E80FF11DE35A39
:100EF000FF4FF0820B8FEA89FB898081806207C0F7
:100F0000EE89FF896083E889F98980818064808324
:100F100081E090E0DF91CF911F910F91FF90EF90D2
:100F20000895CF92DF92EF92FF921F93CF93DF93BA
:100F3000EC016A017B01122FE889F98982E0808344
:100F40004115514E61057105B1F060E079E08DE326
:100F500090E0A70196010E94F90ADA01C901019700
:100F6000A109B109B695A79597958795AC0141154B
:100F700080E15807A8F0E889F989108260E874E8F0
:100F80008EE190E0A70196010E94F90ABA01A90139
:100F900041505109610971097695679557954795B3
:100FA000EC85FD855083EE85FF854083188EEC89A6
:100FB000FD891083EA89FB89808180618083EA89C9
:100FC000FB89808188608083EA89FB8980818068D1
:100FD0008083EA89FB8980818F7D8083DF91CF9137
:100FE0001F91FF90EF90DF90CF9008951F920F9286
:100FF0000FB60F9211240BB60F922F938F939F93DE
:10100000EF93FF93E0918303F09184038081E0915B
:101010008903F0918A0382FD12C0908180918C0334
:101020008F5F8F7320918D03821751F0E0918C03B5
:10103000F0E0ED58FC4F958F80938C0301C08081C8
:10104000FF91EF919F918F912F910F900BBE0F9079
:101050000FBE0F901F9018951F920F920FB60F9210
:1010600011240BB60F922F933F934F935F936F937F
:101070007F938F939F93AF93BF93EF93FF9383E7F8
:1010800093E00E940707FF91EF91BF91AF919F916D
:101090008F917F916F915F914F913F912F910F9021
:1010A0000BBE0F900FBE0F901F90189583E793E033
:1010B0000E94BA0621E0892B09F420E0822F0895CE
:1010C000E3E7F3E01382128288EE93E0A0E0B0E061
:1010D00084839583A683B7838EEB92E0918380838C
:1010E00085EC90E09587848784EC90E097878687ED
:1010F00080EC90E0918B808B81EC90E0938B828BE5
:1011000082EC90E0958B848B86EC90E0978B868BBD
:10111000118E128E138E148E08951F920F920FB699
:101120000F9211240BB60F922F938F939F93EF93EF
:10113000FF93E0912004F09121048081E091260446
:10114000F091270482FD12C09081809129048F5F65
:101150008F7320912A04821751F0E0912904F0E066
:10116000E05FFB4F958F8093290401C08081FF9140
:10117000EF919F918F912F910F900BBE0F900FBE0B
:101180000F901F9018951F920F920FB60F92112477
:101190000BB60F922F933F934F935F936F937F9371
:1011A0008F939F93AF93BF93EF93FF9380E194E06E
:1011B0000E940707FF91EF91BF91AF919F918F918F
:1011C0007F916F915F914F913F912F910F900BBE47
:1011D0000F900FBE0F901F90189580E194E00E9431
:1011E000BA0621E0892B09F420E0822F0895E0E17E
:1011F000F4E01382128288EE93E0A0E0B0E08483F2
:101200009583A683B7838EEB92E0918380838DECE8
:1012100090E0958784878CEC90E09787868788ECB0
:1012200090E0918B808B89EC90E0938B828B8AECA1
:1012300090E0958B848B8EEC90E0978B868B118E53
:10124000128E138E148E0895CF92DF92EF92FF923A
:101250000F931F93CF93DF936C017A018B01C0E052
:10126000D0E0CE15DF0589F0D8016D918D01D60152
:10127000ED91FC910190F081E02DC6010995892B3B
:1012800011F47E0102C02196ECCFC701DF91CF910E
:101290001F910F91FF90EF90DF90CF90089561150F
:1012A000710579F0FB0101900020E9F73197AF015A
:1012B000461B570BDC01ED91FC910280F381E02D80
:1012C000099480E090E00895DC01ED91FC91DB0150
:1012D00014964D915C9115976D917C910280F381EC
:1012E000E02D0994DC01ED91FC910190F081E02D5D
:1012F000099466E272E00C944F090F931F93CF9309
:10130000DF93EC010E9464098C01CE010E947909EF
:10131000800F911FDF91CF911F910F9108950F932F
:101320001F93CF93DF93EC010E944F098C01CE01F4
:101330000E947909800F911FDF91CF911F910F912A
:101340000895FC01808191810C94B90BCF93DF93B8
:10135000EC0188819981009711F00E94B90B1982E4
:1013600018821D821C821B821A82DF91CF91089500
:101370000F931F93CF93DF93EC018B016F5F7F4F30
:10138000888199810E94510C009731F0998388835C
:101390001B830A8381E001C080E0DF91CF911F9120
:1013A0000F910895CF93DF93EC0188819981892B68
:1013B00029F08A819B818617970760F4CE010E94ED
:1013C000B809882341F08C819D81892B19F4E8812B
:1013D000F981108281E0DF91CF910895EF92FF9221
:1013E0000F931F93CF93DF93EC017B018A01BA0126
:1013F0000E94D209811104C0CE010E94A60907C033
:101400001D830C83B701888199810E94430DCE0111
:10141000DF91CF911F910F91FF90EF900895FC0104
:101420001182108213821282158214826115710555
:1014300051F0FB0101900020E9F73197AF01461B05
:10144000570B0C94EE090895CF93DF93EC016115CF
:10145000710559F0FB0101900020E9F73197AF01C8
:10146000461B570B0E94EE0902C00E94A609CE013E
:10147000DF91CF9108950F931F93CF93DF93CDB753
:10148000DEB762970FB6F894DEBF0FBECDBF8C01FA
:10149000CB01F8011182108213821282158214820C
:1014A00050E0BE016F5F7F4F0E944A0DBE016F5F2B
:1014B0007F4FC8010E94240A62960FB6F894DEBFDF
:1014C0000FBECDBFDF91CF911F910F910895EF9285
:1014D000FF920F931F93CF93DF93FC0124813581FB
:1014E0006115710511F480E019C041155105A9F08D
:1014F0007B01EC018A01020F131FB8010E94D2097F
:10150000882389F3288139818C819D81B701820FDD
:10151000931F0E94430D1D830C8381E0DF91CF91C7
:101520001F910F91FF90EF900895CF93DF93EC01FF
:10153000FB0144815581608171810E94670A81119C
:1015400003C0CE010E94A609CE01DF91CF9108957C
:10155000CF93DF93EC016115710561F0FB01019000
:101560000020E9F73197AF01461B570B0E94670A2D
:10157000811103C0CE010E94A609CE01DF91CF9157
:101580000895FC01248135816217730748F4808136
:101590009181009729F0FC01E60FF71F80810895E3
:1015A00080E008950C94C10A08950E944A050E94A3
:1015B000D40A0E942003C8EED6E00E947F03209741
:1015C000E1F30E94E806F9CF0895AA1BBB1B51E185
:1015D00007C0AA1FBB1FA617B70710F0A61BB70BA3
:1015E000881F991F5A95A9F780959095BC01CD0148
:1015F0000895A1E21A2EAA1BBB1BFD010DC0AA1F54
:10160000BB1FEE1FFF1FA217B307E407F50720F06B
:10161000A21BB30BE40BF50B661F771F881F991FE6
:101620001A9469F760957095809590959B01AC012F
:10163000BD01CF010895EE0FFF1F0024001C0BBE5B
:101640000790F691E02D0994CF93DF9382309105B6
:1016500010F482E090E0E091AF04F091B00420E05B
:1016600030E0C0E0D0E0309711F14081518148175F
:101670005907C0F04817590761F482819381209778
:1016800019F09B838A832BC09093B0048093AF049E
:1016900026C02115310519F04217530718F49A0195
:1016A000BE01DF01EF010280F381E02DDCCF2115C7
:1016B000310509F1281B390B2430310590F41296BD
:1016C0008D919C9113976115710521F0FB01938316
:1016D000828304C09093B0048093AF04FD013296DE
:1016E00044C0FD01E20FF31F819391932250310911
:1016F0002D933C933AC02091AD043091AE04232B3E
:1017000041F420910202309103023093AE04209301
:10171000AD0420910002309101022115310541F400
:101720002DB73EB74091040250910502241B350BA2
:10173000E091AD04F091AE04E217F307A0F42E1B84
:101740003F0B2817390778F0AC014E5F5F4F241725
:10175000350748F04E0F5F1F5093AE044093AD0421
:101760008193919302C0E0E0F0E0CF01DF91CF914F
:1017700008950F931F93CF93DF93009709F48CC0C4
:10178000FC013297138212820091AF041091B004D1
:101790000115110581F420813181820F931F209161
:1017A000AD043091AE042817390779F5F093AE04F3
:1017B000E093AD0471C0D80140E050E0AE17BF0720
:1017C00050F412962D913C911397AD0121153105DE
:1017D00009F1D901F3CF9D01DA01338322836081BE
:1017E0007181860F971F8217930769F4EC01288196
:1017F0003981260F371F2E5F3F4F318320838A8127
:101800009B8193838283452B29F4F093B004E0936A
:10181000AF0442C01396FC93EE931297ED014991E9
:1018200059919E01240F351FE217F30771F480814F
:101830009181840F951F029611969C938E938281BD
:10184000938113969C938E931297E0E0F0E0D80179
:1018500012968D919C911397009719F0F8018C01C5
:10186000F6CF8D919C9198012E5F3F4F820F931F71
:101870002091AD043091AE042817390769F43097F0
:1018800029F41092B0041092AF0402C013821282A5
:101890001093AE040093AD04DF91CF911F910F918F
:1018A00008956F927F928F929F92AF92BF92CF9244
:1018B000DF92EF92FF920F931F93CF93DF93EC0190
:1018C000009789F4CB01DF91CF911F910F91FF9089
:1018D000EF90DF90CF90BF90AF909F908F907F90D0
:1018E0006F900C94240BFC01E60FF71F9C01225013
:1018F0003109E217F30708F4ACC0D9010D911C912E
:10190000119706171707B0F00530110508F49FC0AE
:10191000C80104978617970708F499C00250110967
:10192000061B170B019311936D937C93CF010E94BB
:10193000B90B8DC05B01A01AB10A4C01800E911E3B
:10194000A091AF04B091B00440E050E0E12CF12C44
:10195000109709F44AC0A815B905D1F56D907C908F
:101960001197630182E0C80ED11CCA14DB0480F118
:10197000A3014A195B096A0182E0C80ED11C1296C4
:10198000BC9012971396AC91B5E0CB16D10440F001
:10199000B282A38351834083D9016D937C930AC0A3
:1019A0000E5F1F4FC301800F911FF9019183808348
:1019B000EB2DFA2FE114F10431F0D7011396FC93CB
:1019C000EE93129744C0F093B004E093AF043FC08D
:1019D0008D919C9111974817590708F4AC017D012E
:1019E00012960D90BC91A02DB3CF8091AD04909133
:1019F000AE0488159905E1F446175707C8F480919D
:101A0000000290910102009741F48DB79EB740917A
:101A1000040250910502841B950BE817F907C8F4DE
:101A2000F093AE04E093AD04F901718360830FC0BD
:101A3000CB010E94240B7C01009759F0A801BE0144
:101A40000E943A0DCE010E94B90BC70104C0CE011D
:101A500002C080E090E0DF91CF911F910F91FF9045
:101A6000EF90DF90CF90BF90AF909F908F907F903E
:101A70006F900895FB01DC0102C001900D9241506E
:101A80005040D8F70895FB01DC0101900D92002031
:101A9000E1F708954532510520F4423010F00C94DE
:101AA000550DFB011082CB010895BB274A3031F45C
:101AB000992322F4BDE2909581959F4F0C94610D7E
:101AC000BB27FB015527AA27880F991FAA1FA41718
:101AD00010F0A41B83955051B9F7A05DAA3308F00C
:101AE000A95DA193009779F7B111B1931192CB0140
:101AF0000C947A0DDC01FC01672F71917723E1F7DB
:101B0000329704C07C916D9370836291AE17BF07CA
:081B1000C8F30895F894FFCF1B
:101B18000000B10480000141546D656761313238BD
:101B2800524641312044657620426F617264204FED
:101B38006E6C696E65210D0A0047696D62616C20E3
:101B4800496E707574733A20526F6C6C3A20002C91
:101B58002050697463683A20002C205961773A2034
:101B6800002C205468726F74746C653A2000506FB2
:101B780074656E74696F6D6574657220313A200002
:101B88002C20506F74656E74696F6D657465722072
:101B9800323A2000427574746F6E2031207072657D
:101BA8007373207265676973746572656421004296
:101BB8007574746F6E20322070726573732072654D
:101BC80067697374657265642100000000004A0744
:101BD8002409BA06D406C60628076E616E00696E27
:061BE80066006F76660046
:00000001FF
